{
  "_format": "hh-sol-artifact-1",
  "contractName": "cXchange",
  "sourceName": "contracts/cXchange.sol",
  "abi": [
    {
      "inputs": [
        {
          "internalType": "address",
          "name": "_mentoTokenBroker",
          "type": "address"
        },
        {
          "internalType": "address",
          "name": "_sortedOracles",
          "type": "address"
        },
        {
          "internalType": "address",
          "name": "_biPoolManager",
          "type": "address"
        },
        {
          "internalType": "address",
          "name": "_baseToken",
          "type": "address"
        }
      ],
      "stateMutability": "nonpayable",
      "type": "constructor"
    },
    {
      "inputs": [
        {
          "internalType": "address",
          "name": "owner",
          "type": "address"
        }
      ],
      "name": "OwnableInvalidOwner",
      "type": "error"
    },
    {
      "inputs": [
        {
          "internalType": "address",
          "name": "account",
          "type": "address"
        }
      ],
      "name": "OwnableUnauthorizedAccount",
      "type": "error"
    },
    {
      "inputs": [],
      "name": "ReentrancyGuardReentrantCall",
      "type": "error"
    },
    {
      "inputs": [
        {
          "internalType": "address",
          "name": "token",
          "type": "address"
        }
      ],
      "name": "SafeERC20FailedOperation",
      "type": "error"
    },
    {
      "anonymous": false,
      "inputs": [
        {
          "indexed": true,
          "internalType": "address",
          "name": "tokenA",
          "type": "address"
        },
        {
          "indexed": true,
          "internalType": "address",
          "name": "tokenB",
          "type": "address"
        },
        {
          "indexed": false,
          "internalType": "address",
          "name": "provider",
          "type": "address"
        },
        {
          "indexed": false,
          "internalType": "bytes32",
          "name": "exchangeId",
          "type": "bytes32"
        }
      ],
      "name": "ExchangeProviderUpdated",
      "type": "event"
    },
    {
      "anonymous": false,
      "inputs": [
        {
          "indexed": true,
          "internalType": "address",
          "name": "token",
          "type": "address"
        },
        {
          "indexed": false,
          "internalType": "uint256",
          "name": "amount",
          "type": "uint256"
        }
      ],
      "name": "FeeCollected",
      "type": "event"
    },
    {
      "anonymous": false,
      "inputs": [
        {
          "indexed": true,
          "internalType": "bytes32",
          "name": "pair",
          "type": "bytes32"
        },
        {
          "indexed": true,
          "internalType": "address",
          "name": "provider",
          "type": "address"
        },
        {
          "indexed": false,
          "internalType": "uint256",
          "name": "amountA",
          "type": "uint256"
        },
        {
          "indexed": false,
          "internalType": "uint256",
          "name": "amountB",
          "type": "uint256"
        },
        {
          "indexed": false,
          "internalType": "uint256",
          "name": "shares",
          "type": "uint256"
        }
      ],
      "name": "LiquidityAdded",
      "type": "event"
    },
    {
      "anonymous": false,
      "inputs": [
        {
          "indexed": true,
          "internalType": "bytes32",
          "name": "pair",
          "type": "bytes32"
        },
        {
          "indexed": true,
          "internalType": "address",
          "name": "provider",
          "type": "address"
        },
        {
          "indexed": false,
          "internalType": "uint256",
          "name": "amountA",
          "type": "uint256"
        },
        {
          "indexed": false,
          "internalType": "uint256",
          "name": "amountB",
          "type": "uint256"
        },
        {
          "indexed": false,
          "internalType": "uint256",
          "name": "shares",
          "type": "uint256"
        }
      ],
      "name": "LiquidityRemoved",
      "type": "event"
    },
    {
      "anonymous": false,
      "inputs": [
        {
          "indexed": true,
          "internalType": "address",
          "name": "token",
          "type": "address"
        },
        {
          "indexed": false,
          "internalType": "uint256",
          "name": "lastUpdate",
          "type": "uint256"
        }
      ],
      "name": "OraclePriceStale",
      "type": "event"
    },
    {
      "anonymous": false,
      "inputs": [
        {
          "indexed": true,
          "internalType": "uint256",
          "name": "orderId",
          "type": "uint256"
        },
        {
          "indexed": true,
          "internalType": "address",
          "name": "trader",
          "type": "address"
        }
      ],
      "name": "OrderCancelled",
      "type": "event"
    },
    {
      "anonymous": false,
      "inputs": [
        {
          "indexed": true,
          "internalType": "uint256",
          "name": "orderId",
          "type": "uint256"
        },
        {
          "indexed": true,
          "internalType": "address",
          "name": "trader",
          "type": "address"
        },
        {
          "indexed": true,
          "internalType": "address",
          "name": "filler",
          "type": "address"
        },
        {
          "indexed": false,
          "internalType": "uint256",
          "name": "amountFilled",
          "type": "uint256"
        },
        {
          "indexed": false,
          "internalType": "uint256",
          "name": "price",
          "type": "uint256"
        }
      ],
      "name": "OrderFilled",
      "type": "event"
    },
    {
      "anonymous": false,
      "inputs": [
        {
          "indexed": true,
          "internalType": "uint256",
          "name": "orderId",
          "type": "uint256"
        },
        {
          "indexed": true,
          "internalType": "address",
          "name": "trader",
          "type": "address"
        },
        {
          "indexed": true,
          "internalType": "bytes32",
          "name": "pair",
          "type": "bytes32"
        },
        {
          "indexed": false,
          "internalType": "enum cXchange.OrderType",
          "name": "orderType",
          "type": "uint8"
        },
        {
          "indexed": false,
          "internalType": "enum cXchange.OrderSide",
          "name": "side",
          "type": "uint8"
        },
        {
          "indexed": false,
          "internalType": "uint256",
          "name": "amountIn",
          "type": "uint256"
        },
        {
          "indexed": false,
          "internalType": "uint256",
          "name": "price",
          "type": "uint256"
        }
      ],
      "name": "OrderPlaced",
      "type": "event"
    },
    {
      "anonymous": false,
      "inputs": [
        {
          "indexed": true,
          "internalType": "address",
          "name": "previousOwner",
          "type": "address"
        },
        {
          "indexed": true,
          "internalType": "address",
          "name": "newOwner",
          "type": "address"
        }
      ],
      "name": "OwnershipTransferred",
      "type": "event"
    },
    {
      "anonymous": false,
      "inputs": [
        {
          "indexed": true,
          "internalType": "address",
          "name": "token",
          "type": "address"
        },
        {
          "indexed": false,
          "internalType": "uint256",
          "name": "oldPrice",
          "type": "uint256"
        },
        {
          "indexed": false,
          "internalType": "uint256",
          "name": "newPrice",
          "type": "uint256"
        },
        {
          "indexed": false,
          "internalType": "uint256",
          "name": "timestamp",
          "type": "uint256"
        }
      ],
      "name": "PriceUpdated",
      "type": "event"
    },
    {
      "anonymous": false,
      "inputs": [
        {
          "indexed": true,
          "internalType": "address",
          "name": "token",
          "type": "address"
        },
        {
          "indexed": true,
          "internalType": "address",
          "name": "exchangeProvider",
          "type": "address"
        },
        {
          "indexed": false,
          "internalType": "bytes32",
          "name": "exchangeId",
          "type": "bytes32"
        }
      ],
      "name": "TokenAdded",
      "type": "event"
    },
    {
      "anonymous": false,
      "inputs": [
        {
          "indexed": true,
          "internalType": "bytes32",
          "name": "pair",
          "type": "bytes32"
        },
        {
          "indexed": true,
          "internalType": "address",
          "name": "buyer",
          "type": "address"
        },
        {
          "indexed": true,
          "internalType": "address",
          "name": "seller",
          "type": "address"
        },
        {
          "indexed": false,
          "internalType": "uint256",
          "name": "amount",
          "type": "uint256"
        },
        {
          "indexed": false,
          "internalType": "uint256",
          "name": "price",
          "type": "uint256"
        },
        {
          "indexed": false,
          "internalType": "uint256",
          "name": "timestamp",
          "type": "uint256"
        }
      ],
      "name": "TradeExecuted",
      "type": "event"
    },
    {
      "anonymous": false,
      "inputs": [
        {
          "indexed": true,
          "internalType": "bytes32",
          "name": "pair",
          "type": "bytes32"
        },
        {
          "indexed": true,
          "internalType": "address",
          "name": "tokenA",
          "type": "address"
        },
        {
          "indexed": true,
          "internalType": "address",
          "name": "tokenB",
          "type": "address"
        },
        {
          "indexed": false,
          "internalType": "bytes32",
          "name": "rateFeedId",
          "type": "bytes32"
        }
      ],
      "name": "TradingPairAdded",
      "type": "event"
    },
    {
      "inputs": [],
      "name": "MAX_FEE_BPS",
      "outputs": [
        {
          "internalType": "uint256",
          "name": "",
          "type": "uint256"
        }
      ],
      "stateMutability": "view",
      "type": "function"
    },
    {
      "inputs": [],
      "name": "ORDER_EXPIRY_TIME",
      "outputs": [
        {
          "internalType": "uint256",
          "name": "",
          "type": "uint256"
        }
      ],
      "stateMutability": "view",
      "type": "function"
    },
    {
      "inputs": [],
      "name": "PRECISION",
      "outputs": [
        {
          "internalType": "uint256",
          "name": "",
          "type": "uint256"
        }
      ],
      "stateMutability": "view",
      "type": "function"
    },
    {
      "inputs": [],
      "name": "PRICE_STALENESS_THRESHOLD",
      "outputs": [
        {
          "internalType": "uint256",
          "name": "",
          "type": "uint256"
        }
      ],
      "stateMutability": "view",
      "type": "function"
    },
    {
      "inputs": [
        {
          "internalType": "uint256",
          "name": "",
          "type": "uint256"
        }
      ],
      "name": "activePairs",
      "outputs": [
        {
          "internalType": "bytes32",
          "name": "",
          "type": "bytes32"
        }
      ],
      "stateMutability": "view",
      "type": "function"
    },
    {
      "inputs": [
        {
          "internalType": "bytes32",
          "name": "poolId",
          "type": "bytes32"
        },
        {
          "internalType": "uint256",
          "name": "amountA",
          "type": "uint256"
        },
        {
          "internalType": "uint256",
          "name": "amountB",
          "type": "uint256"
        }
      ],
      "name": "addLiquidity",
      "outputs": [
        {
          "internalType": "uint256",
          "name": "shares",
          "type": "uint256"
        }
      ],
      "stateMutability": "nonpayable",
      "type": "function"
    },
    {
      "inputs": [
        {
          "internalType": "address",
          "name": "token",
          "type": "address"
        },
        {
          "internalType": "address",
          "name": "exchangeProvider",
          "type": "address"
        },
        {
          "internalType": "bytes32",
          "name": "exchangeId",
          "type": "bytes32"
        },
        {
          "internalType": "address",
          "name": "rateFeedId",
          "type": "address"
        }
      ],
      "name": "addSupportedToken",
      "outputs": [],
      "stateMutability": "nonpayable",
      "type": "function"
    },
    {
      "inputs": [
        {
          "internalType": "address",
          "name": "tokenA",
          "type": "address"
        },
        {
          "internalType": "address",
          "name": "tokenB",
          "type": "address"
        },
        {
          "internalType": "uint256",
          "name": "minOrderSize",
          "type": "uint256"
        },
        {
          "internalType": "uint256",
          "name": "tickSize",
          "type": "uint256"
        },
        {
          "internalType": "bytes32",
          "name": "rateFeedId",
          "type": "bytes32"
        }
      ],
      "name": "addTradingPair",
      "outputs": [],
      "stateMutability": "nonpayable",
      "type": "function"
    },
    {
      "inputs": [],
      "name": "baseToken",
      "outputs": [
        {
          "internalType": "address",
          "name": "",
          "type": "address"
        }
      ],
      "stateMutability": "view",
      "type": "function"
    },
    {
      "inputs": [
        {
          "internalType": "uint256[]",
          "name": "orderIds",
          "type": "uint256[]"
        }
      ],
      "name": "batchCancelOrders",
      "outputs": [],
      "stateMutability": "nonpayable",
      "type": "function"
    },
    {
      "inputs": [],
      "name": "biPoolManager",
      "outputs": [
        {
          "internalType": "address",
          "name": "",
          "type": "address"
        }
      ],
      "stateMutability": "view",
      "type": "function"
    },
    {
      "inputs": [
        {
          "internalType": "address",
          "name": "",
          "type": "address"
        }
      ],
      "name": "cachedPrices",
      "outputs": [
        {
          "internalType": "uint256",
          "name": "",
          "type": "uint256"
        }
      ],
      "stateMutability": "view",
      "type": "function"
    },
    {
      "inputs": [
        {
          "internalType": "uint256",
          "name": "orderId",
          "type": "uint256"
        }
      ],
      "name": "cancelOrder",
      "outputs": [],
      "stateMutability": "nonpayable",
      "type": "function"
    },
    {
      "inputs": [
        {
          "internalType": "address",
          "name": "",
          "type": "address"
        }
      ],
      "name": "collectedFees",
      "outputs": [
        {
          "internalType": "uint256",
          "name": "",
          "type": "uint256"
        }
      ],
      "stateMutability": "view",
      "type": "function"
    },
    {
      "inputs": [
        {
          "internalType": "address",
          "name": "tokenA",
          "type": "address"
        },
        {
          "internalType": "address",
          "name": "tokenB",
          "type": "address"
        },
        {
          "internalType": "uint256",
          "name": "amountA",
          "type": "uint256"
        },
        {
          "internalType": "uint256",
          "name": "amountB",
          "type": "uint256"
        }
      ],
      "name": "createLiquidityPool",
      "outputs": [
        {
          "internalType": "bytes32",
          "name": "poolId",
          "type": "bytes32"
        }
      ],
      "stateMutability": "nonpayable",
      "type": "function"
    },
    {
      "inputs": [
        {
          "internalType": "address",
          "name": "token",
          "type": "address"
        },
        {
          "internalType": "uint256",
          "name": "amount",
          "type": "uint256"
        }
      ],
      "name": "emergencyWithdraw",
      "outputs": [],
      "stateMutability": "nonpayable",
      "type": "function"
    },
    {
      "inputs": [
        {
          "internalType": "address",
          "name": "tokenA",
          "type": "address"
        },
        {
          "internalType": "address",
          "name": "tokenB",
          "type": "address"
        },
        {
          "internalType": "uint256",
          "name": "amountIn",
          "type": "uint256"
        },
        {
          "internalType": "bool",
          "name": "useInternalFirst",
          "type": "bool"
        }
      ],
      "name": "executeArbitrage",
      "outputs": [
        {
          "internalType": "uint256",
          "name": "profit",
          "type": "uint256"
        }
      ],
      "stateMutability": "nonpayable",
      "type": "function"
    },
    {
      "inputs": [
        {
          "internalType": "uint256",
          "name": "orderId",
          "type": "uint256"
        },
        {
          "internalType": "uint256",
          "name": "amountToFill",
          "type": "uint256"
        }
      ],
      "name": "fillOrder",
      "outputs": [],
      "stateMutability": "nonpayable",
      "type": "function"
    },
    {
      "inputs": [
        {
          "internalType": "bytes32",
          "name": "poolId",
          "type": "bytes32"
        }
      ],
      "name": "getLiquidityPoolInfo",
      "outputs": [
        {
          "internalType": "address",
          "name": "tokenA",
          "type": "address"
        },
        {
          "internalType": "address",
          "name": "tokenB",
          "type": "address"
        },
        {
          "internalType": "uint256",
          "name": "reserveA",
          "type": "uint256"
        },
        {
          "internalType": "uint256",
          "name": "reserveB",
          "type": "uint256"
        },
        {
          "internalType": "uint256",
          "name": "totalShares",
          "type": "uint256"
        },
        {
          "internalType": "uint256",
          "name": "userShares",
          "type": "uint256"
        },
        {
          "internalType": "uint256",
          "name": "lastUpdate",
          "type": "uint256"
        }
      ],
      "stateMutability": "view",
      "type": "function"
    },
    {
      "inputs": [
        {
          "internalType": "bytes32",
          "name": "pairId",
          "type": "bytes32"
        }
      ],
      "name": "getMarketData",
      "outputs": [
        {
          "internalType": "uint256",
          "name": "lastPrice",
          "type": "uint256"
        },
        {
          "internalType": "uint256",
          "name": "priceChange24h",
          "type": "uint256"
        },
        {
          "internalType": "uint256",
          "name": "volume24h",
          "type": "uint256"
        },
        {
          "internalType": "uint256",
          "name": "high24h",
          "type": "uint256"
        },
        {
          "internalType": "uint256",
          "name": "low24h",
          "type": "uint256"
        },
        {
          "internalType": "uint256",
          "name": "lastTradeTimestamp",
          "type": "uint256"
        }
      ],
      "stateMutability": "view",
      "type": "function"
    },
    {
      "inputs": [],
      "name": "getMentoExchanges",
      "outputs": [
        {
          "components": [
            {
              "internalType": "bytes32",
              "name": "exchangeId",
              "type": "bytes32"
            },
            {
              "internalType": "address[]",
              "name": "assets",
              "type": "address[]"
            }
          ],
          "internalType": "struct IExchangeProvider.Exchange[]",
          "name": "",
          "type": "tuple[]"
        }
      ],
      "stateMutability": "view",
      "type": "function"
    },
    {
      "inputs": [
        {
          "internalType": "address",
          "name": "token",
          "type": "address"
        }
      ],
      "name": "getOracleRates",
      "outputs": [
        {
          "internalType": "uint256[]",
          "name": "rates",
          "type": "uint256[]"
        },
        {
          "internalType": "uint256[]",
          "name": "timestamps",
          "type": "uint256[]"
        }
      ],
      "stateMutability": "view",
      "type": "function"
    },
    {
      "inputs": [
        {
          "internalType": "uint256",
          "name": "orderId",
          "type": "uint256"
        }
      ],
      "name": "getOrder",
      "outputs": [
        {
          "components": [
            {
              "internalType": "uint256",
              "name": "orderId",
              "type": "uint256"
            },
            {
              "internalType": "address",
              "name": "trader",
              "type": "address"
            },
            {
              "internalType": "address",
              "name": "tokenIn",
              "type": "address"
            },
            {
              "internalType": "address",
              "name": "tokenOut",
              "type": "address"
            },
            {
              "internalType": "uint256",
              "name": "amountIn",
              "type": "uint256"
            },
            {
              "internalType": "uint256",
              "name": "amountOut",
              "type": "uint256"
            },
            {
              "internalType": "uint256",
              "name": "price",
              "type": "uint256"
            },
            {
              "internalType": "enum cXchange.OrderType",
              "name": "orderType",
              "type": "uint8"
            },
            {
              "internalType": "enum cXchange.OrderSide",
              "name": "side",
              "type": "uint8"
            },
            {
              "internalType": "enum cXchange.OrderStatus",
              "name": "status",
              "type": "uint8"
            },
            {
              "internalType": "uint256",
              "name": "createdAt",
              "type": "uint256"
            },
            {
              "internalType": "uint256",
              "name": "expiresAt",
              "type": "uint256"
            },
            {
              "internalType": "uint256",
              "name": "filledAmount",
              "type": "uint256"
            },
            {
              "internalType": "bool",
              "name": "isPartialFillAllowed",
              "type": "bool"
            }
          ],
          "internalType": "struct cXchange.Order",
          "name": "",
          "type": "tuple"
        }
      ],
      "stateMutability": "view",
      "type": "function"
    },
    {
      "inputs": [
        {
          "internalType": "bytes32",
          "name": "pairId",
          "type": "bytes32"
        },
        {
          "internalType": "uint256",
          "name": "depth",
          "type": "uint256"
        }
      ],
      "name": "getOrderBook",
      "outputs": [
        {
          "internalType": "uint256[]",
          "name": "buyPrices",
          "type": "uint256[]"
        },
        {
          "internalType": "uint256[]",
          "name": "buyAmounts",
          "type": "uint256[]"
        },
        {
          "internalType": "uint256[]",
          "name": "sellPrices",
          "type": "uint256[]"
        },
        {
          "internalType": "uint256[]",
          "name": "sellAmounts",
          "type": "uint256[]"
        }
      ],
      "stateMutability": "view",
      "type": "function"
    },
    {
      "inputs": [
        {
          "internalType": "address",
          "name": "tokenA",
          "type": "address"
        },
        {
          "internalType": "address",
          "name": "tokenB",
          "type": "address"
        }
      ],
      "name": "getPairId",
      "outputs": [
        {
          "internalType": "bytes32",
          "name": "",
          "type": "bytes32"
        }
      ],
      "stateMutability": "pure",
      "type": "function"
    },
    {
      "inputs": [
        {
          "internalType": "bytes32",
          "name": "pairId",
          "type": "bytes32"
        },
        {
          "internalType": "uint256",
          "name": "timeframe",
          "type": "uint256"
        },
        {
          "internalType": "uint256",
          "name": "from",
          "type": "uint256"
        },
        {
          "internalType": "uint256",
          "name": "to",
          "type": "uint256"
        },
        {
          "internalType": "uint256",
          "name": "limit",
          "type": "uint256"
        }
      ],
      "name": "getPriceCandles",
      "outputs": [
        {
          "components": [
            {
              "internalType": "uint256",
              "name": "timestamp",
              "type": "uint256"
            },
            {
              "internalType": "uint256",
              "name": "open",
              "type": "uint256"
            },
            {
              "internalType": "uint256",
              "name": "high",
              "type": "uint256"
            },
            {
              "internalType": "uint256",
              "name": "low",
              "type": "uint256"
            },
            {
              "internalType": "uint256",
              "name": "close",
              "type": "uint256"
            },
            {
              "internalType": "uint256",
              "name": "volume",
              "type": "uint256"
            },
            {
              "internalType": "uint256",
              "name": "trades",
              "type": "uint256"
            }
          ],
          "internalType": "struct cXchange.PriceCandle[]",
          "name": "candles",
          "type": "tuple[]"
        }
      ],
      "stateMutability": "view",
      "type": "function"
    },
    {
      "inputs": [],
      "name": "getSupportedTokens",
      "outputs": [
        {
          "internalType": "address[]",
          "name": "",
          "type": "address[]"
        }
      ],
      "stateMutability": "view",
      "type": "function"
    },
    {
      "inputs": [
        {
          "internalType": "address",
          "name": "tokenIn",
          "type": "address"
        },
        {
          "internalType": "address",
          "name": "tokenOut",
          "type": "address"
        },
        {
          "internalType": "uint256",
          "name": "amountIn",
          "type": "uint256"
        }
      ],
      "name": "getSwapAmountOut",
      "outputs": [
        {
          "internalType": "uint256",
          "name": "amountOut",
          "type": "uint256"
        }
      ],
      "stateMutability": "nonpayable",
      "type": "function"
    },
    {
      "inputs": [
        {
          "internalType": "address",
          "name": "tokenA",
          "type": "address"
        },
        {
          "internalType": "address",
          "name": "tokenB",
          "type": "address"
        }
      ],
      "name": "getTokenExchangeProvider",
      "outputs": [
        {
          "internalType": "address",
          "name": "provider",
          "type": "address"
        },
        {
          "internalType": "bytes32",
          "name": "exchangeId",
          "type": "bytes32"
        },
        {
          "internalType": "bool",
          "name": "active",
          "type": "bool"
        },
        {
          "internalType": "address",
          "name": "rateFeedId",
          "type": "address"
        },
        {
          "internalType": "uint256",
          "name": "lastPriceUpdate",
          "type": "uint256"
        }
      ],
      "stateMutability": "view",
      "type": "function"
    },
    {
      "inputs": [
        {
          "internalType": "address",
          "name": "token",
          "type": "address"
        }
      ],
      "name": "getTokenPrice",
      "outputs": [
        {
          "internalType": "uint256",
          "name": "price",
          "type": "uint256"
        },
        {
          "internalType": "uint256",
          "name": "timestamp",
          "type": "uint256"
        }
      ],
      "stateMutability": "nonpayable",
      "type": "function"
    },
    {
      "inputs": [
        {
          "internalType": "address",
          "name": "token",
          "type": "address"
        }
      ],
      "name": "getTokenPriceFromOracle",
      "outputs": [
        {
          "internalType": "uint256",
          "name": "price",
          "type": "uint256"
        },
        {
          "internalType": "uint256",
          "name": "timestamp",
          "type": "uint256"
        }
      ],
      "stateMutability": "nonpayable",
      "type": "function"
    },
    {
      "inputs": [],
      "name": "getTradingPairs",
      "outputs": [
        {
          "internalType": "bytes32[]",
          "name": "",
          "type": "bytes32[]"
        }
      ],
      "stateMutability": "view",
      "type": "function"
    },
    {
      "inputs": [
        {
          "internalType": "address",
          "name": "user",
          "type": "address"
        },
        {
          "internalType": "bool",
          "name": "activeOnly",
          "type": "bool"
        }
      ],
      "name": "getUserOrders",
      "outputs": [
        {
          "internalType": "uint256[]",
          "name": "orderIds",
          "type": "uint256[]"
        }
      ],
      "stateMutability": "view",
      "type": "function"
    },
    {
      "inputs": [
        {
          "internalType": "address",
          "name": "token",
          "type": "address"
        }
      ],
      "name": "isOraclePriceStale",
      "outputs": [
        {
          "internalType": "bool",
          "name": "isStale",
          "type": "bool"
        },
        {
          "internalType": "uint256",
          "name": "lastUpdate",
          "type": "uint256"
        }
      ],
      "stateMutability": "view",
      "type": "function"
    },
    {
      "inputs": [
        {
          "internalType": "address",
          "name": "",
          "type": "address"
        }
      ],
      "name": "lastPriceTimestamp",
      "outputs": [
        {
          "internalType": "uint256",
          "name": "",
          "type": "uint256"
        }
      ],
      "stateMutability": "view",
      "type": "function"
    },
    {
      "inputs": [
        {
          "internalType": "bytes32",
          "name": "",
          "type": "bytes32"
        }
      ],
      "name": "liquidityPools",
      "outputs": [
        {
          "internalType": "address",
          "name": "tokenA",
          "type": "address"
        },
        {
          "internalType": "address",
          "name": "tokenB",
          "type": "address"
        },
        {
          "internalType": "uint256",
          "name": "reserveA",
          "type": "uint256"
        },
        {
          "internalType": "uint256",
          "name": "reserveB",
          "type": "uint256"
        },
        {
          "internalType": "uint256",
          "name": "totalShares",
          "type": "uint256"
        },
        {
          "internalType": "uint256",
          "name": "feeAccumulated",
          "type": "uint256"
        },
        {
          "internalType": "bool",
          "name": "active",
          "type": "bool"
        },
        {
          "internalType": "uint256",
          "name": "lastUpdateTimestamp",
          "type": "uint256"
        }
      ],
      "stateMutability": "view",
      "type": "function"
    },
    {
      "inputs": [],
      "name": "makerRebateBps",
      "outputs": [
        {
          "internalType": "uint256",
          "name": "",
          "type": "uint256"
        }
      ],
      "stateMutability": "view",
      "type": "function"
    },
    {
      "inputs": [],
      "name": "mentoTokenBroker",
      "outputs": [
        {
          "internalType": "address",
          "name": "",
          "type": "address"
        }
      ],
      "stateMutability": "view",
      "type": "function"
    },
    {
      "inputs": [],
      "name": "minLiquidityThreshold",
      "outputs": [
        {
          "internalType": "uint256",
          "name": "",
          "type": "uint256"
        }
      ],
      "stateMutability": "view",
      "type": "function"
    },
    {
      "inputs": [],
      "name": "nextOrderId",
      "outputs": [
        {
          "internalType": "uint256",
          "name": "",
          "type": "uint256"
        }
      ],
      "stateMutability": "view",
      "type": "function"
    },
    {
      "inputs": [
        {
          "internalType": "uint256",
          "name": "",
          "type": "uint256"
        }
      ],
      "name": "orders",
      "outputs": [
        {
          "internalType": "uint256",
          "name": "orderId",
          "type": "uint256"
        },
        {
          "internalType": "address",
          "name": "trader",
          "type": "address"
        },
        {
          "internalType": "address",
          "name": "tokenIn",
          "type": "address"
        },
        {
          "internalType": "address",
          "name": "tokenOut",
          "type": "address"
        },
        {
          "internalType": "uint256",
          "name": "amountIn",
          "type": "uint256"
        },
        {
          "internalType": "uint256",
          "name": "amountOut",
          "type": "uint256"
        },
        {
          "internalType": "uint256",
          "name": "price",
          "type": "uint256"
        },
        {
          "internalType": "enum cXchange.OrderType",
          "name": "orderType",
          "type": "uint8"
        },
        {
          "internalType": "enum cXchange.OrderSide",
          "name": "side",
          "type": "uint8"
        },
        {
          "internalType": "enum cXchange.OrderStatus",
          "name": "status",
          "type": "uint8"
        },
        {
          "internalType": "uint256",
          "name": "createdAt",
          "type": "uint256"
        },
        {
          "internalType": "uint256",
          "name": "expiresAt",
          "type": "uint256"
        },
        {
          "internalType": "uint256",
          "name": "filledAmount",
          "type": "uint256"
        },
        {
          "internalType": "bool",
          "name": "isPartialFillAllowed",
          "type": "bool"
        }
      ],
      "stateMutability": "view",
      "type": "function"
    },
    {
      "inputs": [],
      "name": "owner",
      "outputs": [
        {
          "internalType": "address",
          "name": "",
          "type": "address"
        }
      ],
      "stateMutability": "view",
      "type": "function"
    },
    {
      "inputs": [
        {
          "internalType": "bytes32",
          "name": "",
          "type": "bytes32"
        },
        {
          "internalType": "uint256",
          "name": "",
          "type": "uint256"
        }
      ],
      "name": "pairOrders",
      "outputs": [
        {
          "internalType": "uint256",
          "name": "",
          "type": "uint256"
        }
      ],
      "stateMutability": "view",
      "type": "function"
    },
    {
      "inputs": [
        {
          "internalType": "bytes32",
          "name": "pairId",
          "type": "bytes32"
        }
      ],
      "name": "pauseTradingPair",
      "outputs": [],
      "stateMutability": "nonpayable",
      "type": "function"
    },
    {
      "inputs": [
        {
          "internalType": "address",
          "name": "tokenIn",
          "type": "address"
        },
        {
          "internalType": "address",
          "name": "tokenOut",
          "type": "address"
        },
        {
          "internalType": "uint256",
          "name": "amountIn",
          "type": "uint256"
        },
        {
          "internalType": "uint256",
          "name": "amountOut",
          "type": "uint256"
        },
        {
          "internalType": "enum cXchange.OrderType",
          "name": "orderType",
          "type": "uint8"
        },
        {
          "internalType": "bool",
          "name": "isPartialFillAllowed",
          "type": "bool"
        },
        {
          "internalType": "uint256",
          "name": "expiresAt",
          "type": "uint256"
        }
      ],
      "name": "placeOrder",
      "outputs": [
        {
          "internalType": "uint256",
          "name": "orderId",
          "type": "uint256"
        }
      ],
      "stateMutability": "nonpayable",
      "type": "function"
    },
    {
      "inputs": [
        {
          "internalType": "bytes32",
          "name": "",
          "type": "bytes32"
        },
        {
          "internalType": "uint256",
          "name": "",
          "type": "uint256"
        }
      ],
      "name": "priceCandles",
      "outputs": [
        {
          "internalType": "uint256",
          "name": "timestamp",
          "type": "uint256"
        },
        {
          "internalType": "uint256",
          "name": "open",
          "type": "uint256"
        },
        {
          "internalType": "uint256",
          "name": "high",
          "type": "uint256"
        },
        {
          "internalType": "uint256",
          "name": "low",
          "type": "uint256"
        },
        {
          "internalType": "uint256",
          "name": "close",
          "type": "uint256"
        },
        {
          "internalType": "uint256",
          "name": "volume",
          "type": "uint256"
        },
        {
          "internalType": "uint256",
          "name": "trades",
          "type": "uint256"
        }
      ],
      "stateMutability": "view",
      "type": "function"
    },
    {
      "inputs": [
        {
          "internalType": "bytes32",
          "name": "poolId",
          "type": "bytes32"
        },
        {
          "internalType": "uint256",
          "name": "shares",
          "type": "uint256"
        }
      ],
      "name": "removeLiquidity",
      "outputs": [
        {
          "internalType": "uint256",
          "name": "amountA",
          "type": "uint256"
        },
        {
          "internalType": "uint256",
          "name": "amountB",
          "type": "uint256"
        }
      ],
      "stateMutability": "nonpayable",
      "type": "function"
    },
    {
      "inputs": [],
      "name": "renounceOwnership",
      "outputs": [],
      "stateMutability": "nonpayable",
      "type": "function"
    },
    {
      "inputs": [
        {
          "internalType": "bytes32",
          "name": "pairId",
          "type": "bytes32"
        }
      ],
      "name": "resumeTradingPair",
      "outputs": [],
      "stateMutability": "nonpayable",
      "type": "function"
    },
    {
      "inputs": [
        {
          "internalType": "uint256",
          "name": "_minLiquidityThreshold",
          "type": "uint256"
        }
      ],
      "name": "setMinLiquidityThreshold",
      "outputs": [],
      "stateMutability": "nonpayable",
      "type": "function"
    },
    {
      "inputs": [
        {
          "internalType": "uint256",
          "name": "_tradingFeeBps",
          "type": "uint256"
        },
        {
          "internalType": "uint256",
          "name": "_makerRebateBps",
          "type": "uint256"
        }
      ],
      "name": "setTradingFee",
      "outputs": [],
      "stateMutability": "nonpayable",
      "type": "function"
    },
    {
      "inputs": [],
      "name": "sortedOracles",
      "outputs": [
        {
          "internalType": "address",
          "name": "",
          "type": "address"
        }
      ],
      "stateMutability": "view",
      "type": "function"
    },
    {
      "inputs": [
        {
          "internalType": "address",
          "name": "",
          "type": "address"
        }
      ],
      "name": "supportedTokens",
      "outputs": [
        {
          "internalType": "bool",
          "name": "",
          "type": "bool"
        }
      ],
      "stateMutability": "view",
      "type": "function"
    },
    {
      "inputs": [
        {
          "internalType": "uint256",
          "name": "",
          "type": "uint256"
        }
      ],
      "name": "supportedTokensList",
      "outputs": [
        {
          "internalType": "address",
          "name": "",
          "type": "address"
        }
      ],
      "stateMutability": "view",
      "type": "function"
    },
    {
      "inputs": [
        {
          "internalType": "address",
          "name": "tokenIn",
          "type": "address"
        },
        {
          "internalType": "address",
          "name": "tokenOut",
          "type": "address"
        },
        {
          "internalType": "uint256",
          "name": "amountIn",
          "type": "uint256"
        },
        {
          "internalType": "uint256",
          "name": "amountOutMin",
          "type": "uint256"
        },
        {
          "internalType": "address",
          "name": "to",
          "type": "address"
        }
      ],
      "name": "swapExactTokensForTokens",
      "outputs": [
        {
          "internalType": "uint256",
          "name": "amountOut",
          "type": "uint256"
        }
      ],
      "stateMutability": "nonpayable",
      "type": "function"
    },
    {
      "inputs": [],
      "name": "syncPricesWithOracles",
      "outputs": [],
      "stateMutability": "nonpayable",
      "type": "function"
    },
    {
      "inputs": [
        {
          "internalType": "address",
          "name": "",
          "type": "address"
        },
        {
          "internalType": "address",
          "name": "",
          "type": "address"
        }
      ],
      "name": "tokenExchangeProviders",
      "outputs": [
        {
          "internalType": "address",
          "name": "provider",
          "type": "address"
        },
        {
          "internalType": "bytes32",
          "name": "exchangeId",
          "type": "bytes32"
        },
        {
          "internalType": "bool",
          "name": "active",
          "type": "bool"
        },
        {
          "internalType": "address",
          "name": "rateFeedId",
          "type": "address"
        },
        {
          "internalType": "uint256",
          "name": "lastPriceUpdate",
          "type": "uint256"
        }
      ],
      "stateMutability": "view",
      "type": "function"
    },
    {
      "inputs": [],
      "name": "totalTrades",
      "outputs": [
        {
          "internalType": "uint256",
          "name": "",
          "type": "uint256"
        }
      ],
      "stateMutability": "view",
      "type": "function"
    },
    {
      "inputs": [],
      "name": "totalVolume",
      "outputs": [
        {
          "internalType": "uint256",
          "name": "",
          "type": "uint256"
        }
      ],
      "stateMutability": "view",
      "type": "function"
    },
    {
      "inputs": [],
      "name": "tradingFeeBps",
      "outputs": [
        {
          "internalType": "uint256",
          "name": "",
          "type": "uint256"
        }
      ],
      "stateMutability": "view",
      "type": "function"
    },
    {
      "inputs": [
        {
          "internalType": "bytes32",
          "name": "",
          "type": "bytes32"
        }
      ],
      "name": "tradingPairs",
      "outputs": [
        {
          "internalType": "address",
          "name": "tokenA",
          "type": "address"
        },
        {
          "internalType": "address",
          "name": "tokenB",
          "type": "address"
        },
        {
          "internalType": "bool",
          "name": "active",
          "type": "bool"
        },
        {
          "internalType": "uint256",
          "name": "minOrderSize",
          "type": "uint256"
        },
        {
          "internalType": "uint256",
          "name": "tickSize",
          "type": "uint256"
        },
        {
          "internalType": "uint256",
          "name": "totalVolume24h",
          "type": "uint256"
        },
        {
          "internalType": "uint256",
          "name": "priceChange24h",
          "type": "uint256"
        },
        {
          "internalType": "uint256",
          "name": "lastPrice",
          "type": "uint256"
        },
        {
          "internalType": "uint256",
          "name": "lastTradeTimestamp",
          "type": "uint256"
        },
        {
          "internalType": "bytes32",
          "name": "rateFeedId",
          "type": "bytes32"
        }
      ],
      "stateMutability": "view",
      "type": "function"
    },
    {
      "inputs": [
        {
          "internalType": "address",
          "name": "newOwner",
          "type": "address"
        }
      ],
      "name": "transferOwnership",
      "outputs": [],
      "stateMutability": "nonpayable",
      "type": "function"
    },
    {
      "inputs": [
        {
          "internalType": "address",
          "name": "tokenA",
          "type": "address"
        },
        {
          "internalType": "address",
          "name": "tokenB",
          "type": "address"
        },
        {
          "internalType": "address",
          "name": "provider",
          "type": "address"
        },
        {
          "internalType": "bytes32",
          "name": "exchangeId",
          "type": "bytes32"
        },
        {
          "internalType": "address",
          "name": "rateFeedId",
          "type": "address"
        }
      ],
      "name": "updateExchangeProvider",
      "outputs": [],
      "stateMutability": "nonpayable",
      "type": "function"
    },
    {
      "inputs": [
        {
          "internalType": "uint256[]",
          "name": "orderIds",
          "type": "uint256[]"
        }
      ],
      "name": "updateExpiredOrders",
      "outputs": [],
      "stateMutability": "nonpayable",
      "type": "function"
    },
    {
      "inputs": [
        {
          "internalType": "address",
          "name": "token",
          "type": "address"
        }
      ],
      "name": "updateTokenPrice",
      "outputs": [
        {
          "internalType": "uint256",
          "name": "price",
          "type": "uint256"
        }
      ],
      "stateMutability": "nonpayable",
      "type": "function"
    },
    {
      "inputs": [
        {
          "internalType": "address",
          "name": "",
          "type": "address"
        },
        {
          "internalType": "address",
          "name": "",
          "type": "address"
        }
      ],
      "name": "userBalances",
      "outputs": [
        {
          "internalType": "uint256",
          "name": "",
          "type": "uint256"
        }
      ],
      "stateMutability": "view",
      "type": "function"
    },
    {
      "inputs": [
        {
          "internalType": "address",
          "name": "",
          "type": "address"
        },
        {
          "internalType": "uint256",
          "name": "",
          "type": "uint256"
        }
      ],
      "name": "userOrders",
      "outputs": [
        {
          "internalType": "uint256",
          "name": "",
          "type": "uint256"
        }
      ],
      "stateMutability": "view",
      "type": "function"
    },
    {
      "inputs": [
        {
          "internalType": "address",
          "name": "token",
          "type": "address"
        },
        {
          "internalType": "uint256",
          "name": "amount",
          "type": "uint256"
        }
      ],
      "name": "withdrawFees",
      "outputs": [],
      "stateMutability": "nonpayable",
      "type": "function"
    },
    {
      "stateMutability": "payable",
      "type": "receive"
    }
  ],
  "bytecode": "0x60803461035e57601f6163c238819003918201601f19168301916001600160401b038311848410176102215780849260809460405283398101031261035e5761004781610363565b9061005460208201610363565b9061006d606061006660408401610363565b9201610363565b9133156103485760008054336001600160a01b0319821681178355604051969290916001600160a01b0316907f8be0079c531659141344cd1fd0a4f28419497f9722a3daafe3b4186f6b6457e09080a36001808055601e600655600a600755683635c9adc5dea000006008556017556001600160a01b031693841561030657506001600160a01b03169081156102c1576001600160a01b031691821561027c576001600160a01b031692831561023757600280546001600160a01b0319908116929092179055600380548216929092179091556004805482169290921790915560058054909116821790556000818152600960205260409020805460ff19166001179055601554906801000000000000000082101561022157600182018060155582101561020b57601560009081527f55f448fdea98c4d29eb340757ef0a66cd03dbb9538908a6a81d96026b71ec47590920180546001600160a01b031916821790556040518281527f6763cc526b623f6b04f4011bb2722f1e197b88dafac6462dbbe7b3bab524729b90602090a360405161604a90816103788239f35b634e487b7160e01b600052603260045260246000fd5b634e487b7160e01b600052604160045260246000fd5b60405162461bcd60e51b815260206004820152601a60248201527f496e76616c6964206261736520746f6b656e20616464726573730000000000006044820152606490fd5b60405162461bcd60e51b815260206004820152601c60248201527f496e76616c696420706f6f6c206d616e616765722061646472657373000000006044820152606490fd5b60405162461bcd60e51b815260206004820152601760248201527f496e76616c6964206f7261636c657320616464726573730000000000000000006044820152606490fd5b62461bcd60e51b815260206004820152601660248201527f496e76616c69642062726f6b65722061646472657373000000000000000000006044820152606490fd5b631e4fbdf760e01b600052600060045260246000fd5b600080fd5b51906001600160a01b038216820361035e5756fe6080604052600436101561001b575b361561001957600080fd5b005b6000803560e01c806301736cb3146146e157806301bd4fa41461453e578063132e8aa7146145155780631585f8b8146142445780631cead9a71461420b578063214933fa146141e2578063217466151461412b5780632648212f1461406657806327b6cfb214613d7557806328119ffa14613d4a578063286ae61b14613d115780632a58b33014613cf357806330f4f4bb14613bd0578063353954bc14613b9157806337ed3fa314613b6857806338763ed6146131725780633f92a339146131455780634466bd7f14612f925780634f13292314612f00578063514fcac714612e8e5780635f81a57c14612e7057806363c9187714612e2c578063663b219814612d9c57806368c4ac2614612d5d5780636c08c57e1461272b578063715018a6146126d157806371ace7ec146124fa5780637ba650df146124dc5780637d4feb721461243d578063837479c914612404578063848d6367146123e0578063856652e91461239857806388675e691461235f5780638b8e42ec146123275780638da5cb5b14612300578063924cca9a146122e25780639296d4fa1461225257806395c3c6ed1461223457806395ccea67146121f4578063a5ffb1e91461214a578063a85c38ef14612045578063aaf5eb6814612022578063ad3b1b4714611eee578063adb5198014611ea3578063ae2f376814611c66578063af2c1ca514611c48578063bb8efec614611b9c578063bdf95beb14611a81578063c11c3ce914611929578063c37dfc5b14611353578063c55dae631461132a578063c994b34514611090578063cd2ce4ae14610fda578063cfedc64414610f4d578063d02641a014610f1d578063d09ef24114610d12578063d3c7c2c714610c7c578063d48dd9f014610c4a578063d55be8c614610c2d578063dc22204614610948578063e050bee514610925578063e275c99714610907578063e47efcb8146108c6578063e5b3ad94146104ca578063e879089a1461045a578063f1e9899e146103b8578063f25b9caa1461039b5763f2fde38b14610313575061000e565b346103985760203660031901126103985761032c61472e565b610334615636565b6001600160a01b031680156103845781546001600160a01b03198116821783556001600160a01b03167f8be0079c531659141344cd1fd0a4f28419497f9722a3daafe3b4186f6b6457e08380a380f35b631e4fbdf760e01b82526004829052602482fd5b80fd5b50346103985780600319360112610398576020604051610e108152f35b5034610398576020366003190112610398576040610140916004358152600a6020522060018060a01b038154169060018101549060028101546003820154600483015460058401549160068501549360ff6008600788015497015497604051998a5260018060a01b03811660208b015260a01c16151560408901526060880152608087015260a086015260c085015260e0840152610100830152610120820152f35b503461039857604060e09161046e366147a4565b908252601160205282822090825260205220805490600181015490600281015460038201546004830154916006600585015494015494604051968752602087015260408601526060850152608084015260a083015260c0820152f35b5034610398576080366003190112610398576104e461472e565b906104ed614744565b60643592906044358415801586036108c2576105076155d2565b61050f615636565b6105198385614cc7565b8552600f602052604085209085869260ff600782015416806108b3575b610891575b5060018060a01b03861692838852600b602052856040808a2060009060018060a01b038416825260205220604051610572816148da565b81546001600160a01b03908116825260018301546020830152600283015460ff8116158015604085015260089190911c909116606083015260039092015460808201529061081b575b886040820151610771575b50505081151580610768575b8061075e575b6105ec575b60208860018055604051908152f35b80821198891561074e576106008284614bd8565b995b600587029a878c046005148815171561073a576103e860209c0410610629575b50506105dd565b81610732575b50156106ad57505050506106469030908385615974565b6106508383614cc7565b8452600f8552604084209060ff60078301541661067b575b505050505b388080808080808080610622565b81546106a4943094909161069e906001600160a01b038084169116148585615cde565b93615d53565b38808080610668565b92959282610728575b50506106c6575b5050505061066d565b6106d08382614cc7565b8552600f8652604085209360ff6007860154166106ee575b506106bd565b61071d9461070b6107169260018060a01b03835416148286615cde565b809486853094615d53565b3092615974565b5038808080806106e8565b11905038806106b6565b90503861062f565b634e487b7160e01b8b52601160045260248bfd5b6107588383614bd8565b99610602565b50808214156105d8565b508015156105d2565b600254825160209384015160405163a20f230560e01b81526001600160a01b039283166004820152602481019190915292811660448401529384166064830152608482018990529092839160a4918391165afa8991816107e2575b506107da575b8690886105c6565b9050386107d2565b9091506020813d602011610813575b816107fe60209383614942565b8101031261080e575190386107cc565b600080fd5b3d91506107f1565b5050838852600b60209081526040808a206005546001600160a01b0316600090815292529081902090518791600390610853836148da565b80546001600160a01b03908116845260018201546020850152600282015460ff81161515604086015260081c166060840152015460808201526105bb565b80546108ad92506001600160a01b038881169116149085615cde565b3861053b565b506108bd816158d8565b610536565b8480fd5b5034610398576108d5366147a4565b91908152600e602052604081209081548310156103985760206108f88484614806565b90549060031b1c604051908152f35b50346103985780600319360112610398576020601854604051908152f35b50346103985760203660031901126103985761093f615636565b60043560085580f35b50346103985760803660031901126103985761096261472e565b61096a614744565b6064356001600160a01b03811692604435918490036108c25761098b615636565b6001600160a01b0316918215610bf057828552600960205260ff604086205416610bab57828552600960205260408520805460ff19166001179055601554600160401b811015610b97578060016109e592016015556147eb565b81546001600160a01b0360039290921b82811b199091169086901b17909155169283610a3b575b5060207f6763cc526b623f6b04f4011bb2722f1e197b88dafac6462dbbe7b3bab524729b91604051908152a380f35b600360405191610a4a836148da565b8583526020808401858152600160408087018281526060880195865242608089019081528a8d52600b8652828d206005546001600160a01b03908116600090815291909752929092209751885495166001600160a01b0319909516949094178755915190860155905160028501805460ff191691151560ff169190911781559091518154610100600160a81b03191660089190911b610100600160a81b03161790555191015560025460405163095ea7b360e01b81526001600160a01b03919091166004820152600019602482015260208160448188875af18015610b8c5715610a0c576020813d602011610b84575b81610b4760209383614942565b810103126108c2577f6763cc526b623f6b04f4011bb2722f1e197b88dafac6462dbbe7b3bab524729b91610b7c6020926154c7565b509150610a0c565b3d9150610b3a565b6040513d87823e3d90fd5b634e487b7160e01b86526041600452602486fd5b60405162461bcd60e51b815260206004820152601760248201527f546f6b656e20616c726561647920737570706f727465640000000000000000006044820152606490fd5b60405162461bcd60e51b8152602060048201526015602482015274496e76616c696420746f6b656e206164647265737360581b6044820152606490fd5b503461039857806003193601126103985760206040516103e88152f35b5034610398576020366003190112610398576040610c6e610c6961472e565b6154d4565b825191151582526020820152f35b503461039857806003193601126103985760405180916020601554928381520191601582527f55f448fdea98c4d29eb340757ef0a66cd03dbb9538908a6a81d96026b71ec475915b818110610cf357610cef85610cdb81870382614942565b60405191829160208352602083019061481e565b0390f35b82546001600160a01b0316845260209093019260019283019201610cc4565b50346103985760203660031901126103985780604051610d318161490b565b8181528160208201528160408201528160608201528160808201528160a08201528160c08201528160e082015281610100820152816101208201528161014082015281610160820152816101808201526101a001526004358152600c60205260409020604051610da08161490b565b8154815260018201546001600160a01b03908116602083019081526002840154821660408401908152600385015490921660608401908152600485015460808501908152600586015460a08601908152600687015460c087019081526007880154949795949160e08801919060ff8416610e19816148ad565b83526101008901938060081c60ff16610e329086614c95565b60101c60ff16946101208a0195610e48816148ad565b865260088901546101408b0190815260098a01546101608c01908152600a8b01546101808d01908152600b909b015460ff1615156101a08d01908152604080519d518e529d516001600160a01b0390811660208f01529a518b169d8d019d909d52975190981660608b01525160808a01525160a08901525160c088015251959695929392610ed5816148ad565b60e0880152516101008701610ee9916148cd565b51610ef3816148ad565b6101208601525161014085015251610160840152516101808301525115156101a08201526101c090f35b5034610398576020366003190112610398576040610f41610f3c61472e565b615465565b82519182526020820152f35b5034610398576020366003190112610398576040610100916004358152600f6020522060018060a01b038154169060018060a01b036001820154169060028101546003820154600483015490600584015492600860ff60078701541695015495604051978852602088015260408701526060860152608085015260a0840152151560c083015260e0820152f35b503461039857806003193601126103985760405180602060165491828152018091601685527fd833147d7dc355ba459fc788f669e58cfaf9dc25ddcd0702e87d69c7b512428990855b81811061107a5750505082611039910383614942565b604051928392602084019060208552518091526040840192915b818110611061575050500390f35b8251845285945060209384019390920191600101611053565b8254845260209093019260019283019201611023565b50346103985760a036600319011261039857602435604435608435600435606435838111156112f057859280156112e657935b85815b83811115806112dd575b1561111957848952601160205260408920818a526020526040892054611102575b906110fb91614c08565b86906110c6565b94906111106110fb92614bf9565b959091506110f1565b50509190935061112883614963565b926111366040519485614942565b808452601f1961114582614963565b01875b81811061129c57505086925b8581111580611293575b1561120e578690838952601160205260408920818a526020526040892080549081611195575b50509061119091614c08565b611154565b95611205916006611190959498604051926111af84614927565b835260018101546020840152600281015460408401526003810154606084015260048101546080840152600581015460a0840152015460c08201526111f4828a614be5565b526111ff8189614be5565b50614bf9565b94909138611184565b8488604051918291602083016020845282518091526020604085019301915b81811061123b575050500390f35b91935091602060e060019260c0875180518352848101518584015260408101516040840152606081015160608401526080810151608084015260a081015160a0840152015160c082015201940191019184939261122d565b5081841061115e565b6020906040516112ab81614927565b8a81528a838201528a60408201528a60608201528a60808201528a60a08201528a60c082015282828901015201611148565b508686106110d0565b506103e8936110c3565b60405162461bcd60e51b8152602060048201526012602482015271496e76616c69642074696d652072616e676560701b6044820152606490fd5b50346103985780600319360112610398576005546040516001600160a01b039091168152602090f35b503461039857611362366147a4565b919061136c6155d2565b808252600c60205261138360408320541515614d5d565b808252600c6020526113ab60ff600760408520015460101c166113a5816148ad565b15614da0565b808252600c6020526113c560096040842001544210614ddf565b808252600c602052604082206001810180546001600160a01b03169391903385146118ec5785156118b15760048201805495600a840196611407885482614bd8565b808a1161186c5760ff600b870154161561181b575b506114349061142f60058701548b614ba5565b614bb8565b9661152d6127106114476006548b614ba5565b04916127106114586007548c614ba5565b0494611480611467858d614bd8565b60038a01805490979033906001600160a01b0316615742565b60028801916114a58d61149d8960018060a01b0387541692614bd8565b9033906155f4565b6114b08d8254614c08565b81558c8a6114f060018060a01b038b541692838352601060205260408084209360018060a01b038954169460018060a01b03861682526020522054614bd8565b918c52601060205260408c209060018060a01b03168c5260205260408b205554905414611803575b5483546001600160a01b039081169116614cc7565b95868152600a6020526004600660408320970196875460068201554260078201550161155a8a8254614c08565b905561156889875489615f4b565b508454610e104281900480820291811591830414171561171e578760005260116020526040600020816000526020526040600020908154156000146117a057906001926006928255808483015580600283015580600383015560048201558a600582015501555b845462015180420490620151809182810292818404149015171561171e578760005260116020526040600020826000526020526040600020918254156000146117345760068361166996936001936116639655808483015580600283015580600383015560048201558c600582015501555b546001600160a01b031660008181526012602052604090205490949092614bd8565b90614c08565b9060005260126020526040600020556018546001810180911161171e5760185561169585601954614c08565b601955549054604080519586526020860182905242908601526001600160a01b0390911693909184913391907fc36be37c3dc57a742660487113b4a6dd372b7869c5f3b8c56f5c55292d11cfa590606090a460405193845260208401527f88af4c696532bdbd05ad505c8c3f6c6dd786ab24777c70949ebb2a6ec2a3020d60403394a460018055005b634e487b7160e01b600052601160045260246000fd5b509060069160028201805480831160001461179a575081905b5560038201805480831015611794575081905b556004820155600581016117758b8254614c08565b9055018054926001840180941161171e57611669936116639255611641565b90611760565b9061174d565b506006916002820180548083116000146117fd575081905b55600382018054808310156117f7575081905b556004820155600581016117e08b8254614c08565b9055018054906001820180921161171e57556115cf565b906117cb565b906117b8565b60078701805462ff0000191662010000179055611518565b8903611827573861141c565b60405162461bcd60e51b815260206004820152601960248201527f5061727469616c2066696c6c73206e6f7420616c6c6f776564000000000000006044820152606490fd5b60405162461bcd60e51b815260206004820152601860248201527f416d6f756e7420657863656564732072656d61696e696e6700000000000000006044820152606490fd5b60405162461bcd60e51b8152602060048201526013602482015272125b9d985b1a5908199a5b1b08185b5bdd5b9d606a1b6044820152606490fd5b60405162461bcd60e51b815260206004820152601560248201527421b0b73737ba103334b6361037bbb71037b93232b960591b6044820152606490fd5b50346103985760a03660031901126103985761194361472e565b61194b614744565b6044356001600160a01b038116929190839003611a7d5760407fb53c811967ff597cc18b99f600a2dce7e2ee8d905d69734692d134825dc56b919160643561199161475a565b9461199a615636565b60038451916119a8836148da565b88835260208301978489528684019060018252606085019060018060a01b03168152608085019242845260018060a01b0316998a8d52600b602052888d208d60018060a01b038a169052602052888d209560018060a01b039060018060a01b03905116166001600160601b0360a01b875416178655516001860155611a406002860192511515839060ff801983541691151516179055565b518154610100600160a81b03191660089190911b610100600160a81b031617905551910155825195865260208601526001600160a01b031693a380f35b8380fd5b503461039857611a903661485b565b825b818110611a9d578380f35b80611aab6001928486614ff1565b358552600c6020526040852060078101805460ff8160101c16611acd816148ad565b1580611b8e575b611ae2575b50505001611a92565b62ff00001916620300001790556004810154600a820154611b0291614bd8565b80611b0e575b80611ad9565b8184611b87930190858060a01b03825416808a526010602052600260408b20920191878060a01b0383541690888060a01b0382168c52602052611b558560408d2054614bd8565b918b52601060209081526040808d2060a08b901b8b90039384168e529091528b209190915590549154811691166155f4565b3880611b08565b506009830154421015611ad4565b5034610398578060031936011261039857805b601554811015611c4457611bc2816147eb565b905460055460039290921b1c6001600160a01b039081169291168203611bed575b6001915001611baf565b60405191632174661560e01b8352600483015260208260248186305af115611be3576020823d8211611c3c575b81611c2760209383614942565b81010312611c385760019150611be3565b8280fd5b3d9150611c1a565b5080f35b50346103985780600319360112610398576020600854604051908152f35b503461039857608036600319011261039857611c8061472e565b611c88614744565b6044359060643592611c986155d2565b6001600160a01b03811680865260096020526040862054909190611cbe9060ff16614c15565b6001600160a01b03831680875260096020526040872054909390611ce49060ff16614c15565b838314611e5357611d069185151580611e4a575b611d0190614c57565b614cc7565b93848652600f60205260ff600760408820015416611e0f5785611de4828795611ddb887f9c8e2178a53b464e8c6d21c6d0d1f5189e5d2f6f6a79237ba611cf996a6e6b32978960209d52600f8d526040872096816001600160601b0360a01b89541617885560018801856001600160601b0360a01b8254161790558260028901558560038901556040611da1611d9c8886614ba5565b615dce565b91600660048b019a848c5560078101600160ff1982541617905542600882015560018060a01b033316835201602052205530903390615742565b30903390615742565b5460408051958652602086019290925290840152339280606081015b0390a360018055604051908152f35b60405162461bcd60e51b8152602060048201526013602482015272506f6f6c20616c72656164792065786973747360681b6044820152606490fd5b50861515611cf8565b60405162461bcd60e51b815260206004820152602260248201527f43616e6e6f742063726561746520706f6f6c20776974682073616d6520746f6b60448201526132b760f11b6064820152608490fd5b5034610398576040366003190112610398576040602091611ec261472e565b611eca614744565b6001600160a01b039182168352601085528383209116825283522054604051908152f35b503461039857604036600319011261039857611f0861472e565b60243590611f14615636565b6001600160a01b03168083526012602052604083205490918115611fe75780611fe15750805b808211611f9c5781611f6f7f06c5efeff5c320943d265dc4e5f1af95ad523555ce0c1957e367dda5514572df93602093614bd8565b8486526012835260408620558454611f929082906001600160a01b0316866155f4565b604051908152a280f35b60405162461bcd60e51b815260206004820152601860248201527f496e73756666696369656e74206665652062616c616e636500000000000000006044820152606490fd5b90611f3a565b60405162461bcd60e51b81526020600482015260136024820152724e6f206665657320746f20776974686472617760681b6044820152606490fd5b50346103985780600319360112610398576020604051670de0b6b3a76400008152f35b5034610398576020366003190112610398576004358152600c60205260409020805490600160a01b6001900360018201541690600160a01b60019003600282015416600160a01b600190036003830154166004830154600584015460068501549060078601549160ff8316918360101c60ff169460088901549660098a015498600a8b01549a600b015460ff169b604051809e81526020015260408d015260608c015260808b015260a08a015260c0890152612100816148ad565b60e088015261010087019060081c60ff169061211b916148cd565b612124816148ad565b61012086015261014085015261016084015261018083015215156101a08201526101c090f35b503461039857612159366147a4565b90612162615636565b6103e881116121c05780821161217b5760065560075580f35b60405162461bcd60e51b815260206004820152601860248201527f5265626174652063616e6e6f74206578636565642066656500000000000000006044820152606490fd5b60405162461bcd60e51b815260206004820152600c60248201526b08ccaca40e8dede40d0d2ced60a31b6044820152606490fd5b50346103985760403660031901126103985761223161221161472e565b612219615636565b8254602435916001600160a01b0391821691166155f4565b80f35b5034610398578060031936011261039857602060405162093a808152f35b50346103985760203660031901126103985760e0906004358152600f602052604081209060018060a01b038254169160018060a01b036001820154169160028201546003830154906008604060048601549460018060a01b033316815260068701602052205494015494604051968752602087015260408601526060850152608084015260a083015260c0820152f35b50346103985780600319360112610398576020600654604051908152f35b5034610398578060031936011261039857546040516001600160a01b039091168152602090f35b503461039857606036600319011261039857602061235761234661472e565b61234e614744565b6044359161526a565b604051908152f35b5034610398576020366003190112610398576020906040906001600160a01b0361238761472e565b168152601383522054604051908152f35b5034610398576040366003190112610398576123b261472e565b6001600160a01b03168152600d60205260408120805460243592908310156103985760206108f88484614806565b5034610398576020366003190112610398576040610f416123ff61472e565b615001565b5034610398576020366003190112610398576020906040906001600160a01b0361242c61472e565b168152601483522054604051908152f35b50346103985761244c3661485b565b90825b82811061245a578380f35b806124686001928585614ff1565b358552600c60205233828060a01b03836040882001541614806124ab575b612491575b0161244f565b6124a6336124a0838787614ff1565b35615786565b61248b565b506124b7818585614ff1565b358552600c60205260ff600760408720015460101c166124d6816148ad565b15612486565b50346103985780600319360112610398576020600754604051908152f35b503461039857606036600319011261039857600435602435916044359161251f6155d2565b82938092828152600f602052604081209461254060ff600788015416614b67565b6003860161255081548095614ba5565b9160028801986125628a548095614bb8565b918083116126b7575050915b60048801978854946125848361142f888c614ba5565b6125928861142f8989614ba5565b808210156126af5750995b8a1561266a576125eb8b809861264c9760209f8a8f9d6125e4927f9c8e2178a53b464e8c6d21c6d0d1f5189e5d2f6f6a79237ba611cf996a6e6b329f6125e490849d614c08565b9055614c08565b905533815260068201808c526040808320549192909161260c908990614c08565b33808352938e52919020554260088301558154612636918a913091906001600160a01b0316615742565b60010154309033906001600160a01b0316615742565b60408051958652602086019190915284015233928060608101611e00565b60405162461bcd60e51b815260206004820152601c60248201527f496e73756666696369656e74206c6971756964697479206164646564000000006044820152606490fd5b90509961259d565b8487929599506126cb935061142f91614ba5565b9561256e565b50346103985780600319360112610398576126ea615636565b80546001600160a01b03198116825581906001600160a01b03167f8be0079c531659141344cd1fd0a4f28419497f9722a3daafe3b4186f6b6457e08280a380f35b50346103985760a03660031901126103985761274561472e565b9061274e614744565b91604435906064359261275f61475a565b946127686155d2565b6001600160a01b0383168083526009602052604083205490949061278e9060ff16614c15565b6001600160a01b038216808452600960205260408420549092906127b49060ff16614c15565b8115612d27576001600160a01b03881615612cee576127d38186614cc7565b95868552600f602052604085209360ff60078601541680612cdf575b1561291d5750835461280d906001600160a01b031682148585615cde565b9788106128d85760209888848489839861282e846128339830903390615742565b615d53565b858452600a885260408420939460ff600186015460a01c166128ab575b5050505050604051917fc36be37c3dc57a742660487113b4a6dd372b7869c5f3b8c56f5c55292d11cfa530938061289c3395429089846040919493926060820195825260208201520152565b0390a460018055604051908152f35b6128b694955061565f565b908160068201556007429101556128ce838284615f4b565b3883818080612850565b60405162461bcd60e51b815260206004820152601a60248201527f496e73756666696369656e74206f757470757420616d6f756e740000000000006044820152606490fd5b989297829450869089879493808652600b602052604086208d8752602052604086209060405161294c816148da565b82546001600160a01b03908116825260018401546020830152600284015460ff8116158015604085015260089190911c9091166060830152600390930154608082015291612c0f575b6129a183303384615742565b6005546001600160a01b0316808f148015612c02575b15612a675750506002548151602092830151604051630ddbbe8560e41b815298939789976001600160a01b0394851697899788966129ff96929591949392166004880161593a565b03925af1908115612a5c578491612a29575b50602097612a21919283916155f4565b948591612833565b90506020813d602011612a54575b81612a4460209383614942565b81010312611a7d57516020612a11565b3d9150612a37565b6040513d86823e3d90fd5b93969095506020945060c4925060018060a01b03600254168560018060a01b03845116930151946040519788968795630ddbbe8560e41b875260048701526024860152604485015260648401528d60848401528160a48401525af1908115610b8c578591612bd0575b5060018060a01b0360055416808652600b602052604086208a8752602052604086209160405190612b00826148da565b83546001600160a01b039081168352600185015460208401908152600286015460ff8116158015604087015260089190911c90921660608501526003909501546080840152612b8b5760025491519351604051630ddbbe8560e41b81529560209587956001600160a01b039586169587958d9587956129ff95909492938f939291166004880161593a565b60405162461bcd60e51b815260206004820152601b60248201527f4e6f206f75747075742065786368616e67652070726f766964657200000000006044820152606490fd5b90506020813d602011612bfa575b81612beb60209383614942565b810103126108c2575138612ad0565b3d9150612bde565b50602083015115156129b7565b958690525050600b602090815260408089206005546001600160a01b03168a529091528088209051919493509150612c46816148da565b81546001600160a01b03908116825260018301546020830152600283015460ff8116158015604085015260089190911c9091166060830152600390920154608082015290612c9a5785928988928794612995565b60405162461bcd60e51b815260206004820152601e60248201527f4e6f2065786368616e67652070726f766964657220617661696c61626c6500006044820152606490fd5b50612ce9856158d8565b6127ef565b60405162461bcd60e51b8152602060048201526011602482015270125b9d985b1a59081c9958da5c1a595b9d607a1b6044820152606490fd5b60405162461bcd60e51b815260206004820152600e60248201526d125b9d985b1a5908185b5bdd5b9d60921b6044820152606490fd5b50346103985760203660031901126103985760209060ff906040906001600160a01b03612d8861472e565b168152600984522054166040519015158152f35b5034610398578060031936011261039857612db5614e1b565b906040519182916020830160208452825180915260408401602060408360051b870101940192905b828210612dec57505050500390f35b91936001919395506020612e1c8192603f198a82030186526040838a51805184520151918185820152019061481e565b9601920192018594939192612ddd565b50346103985760203660031901126103985760043590601554821015610398576020612e57836147eb565b905460405160039290921b1c6001600160a01b03168152f35b50346103985780600319360112610398576020601954604051908152f35b503461039857602036600319011261039857612231600435808352600c602052612ebd60408420541515614d5d565b808352600c602052612edf60ff600760408620015460101c166113a5816148ad565b808352600c602052612ef960096040852001544210614ddf565b3390615786565b503461039857604036600319011261039857604090612f1d61472e565b612f25614744565b6001600160a01b039182168352600b60209081528484209183168452908152929091208054600182015460028301546003909301546040805193861684529583019190915260ff831615159482019490945260089190911c9091166060820152608081019190915260a090f35b503461039857604036600319011261039857612fac61472e565b906024359182151583036131415760018060a01b03168152600d60205260408120916040518084602082965493848152019085526020852092855b818110613128575050612ffc92500384614942565b81901561311d57815b8351811015613070576130188185614be5565b518352600c6020526040832060ff600782015460101c16613038816148ad565b159081613062575b5061304e575b600101613005565b9061305a600191614bf9565b919050613046565b600991500154421038613040565b5061307a906149d7565b918190825b8151811015613100576130928183614be5565b518452600c6020526040842060ff600782015460101c166130b2816148ad565b1590816130f2575b506130c8575b60010161307f565b916130ea6001916130d98585614be5565b516130e48289614be5565b52614bf9565b9290506130c0565b6009915001544210386130ba565b50505050610cef905b604051918291602083526020830190614770565b5050610cef90613109565b8454835260019485019488945060209093019201612fe7565b5080fd5b503461039857604036600319011261039857602061235761316461472e565b61316c614744565b90614cc7565b50346103985760e03660031901126103985761318c61472e565b613194614744565b9060643560046084351015611a7d5760a435908115158092036108c25760c435926131bd6155d2565b6001600160a01b0381168652600960205260408620546131df9060ff16614c15565b6001600160a01b038516808752600960205260408720549092906132059060ff16614c15565b8495604435151580613b5f575b61321b90614c57565b6001600160a01b0383168414613b1a576132358184614cc7565b95868952600a60205260ff600160408b20015460a01c1615613ad55715613aac575b42871115613a71578161326e91604435908561565f565b926017549661327c88614bf9565b6017556005546001600160a01b03168203613a6a576001955b88878b604051956132a58761490b565b83875260208701973389526040880191600160a01b600190038b168352606089019081526080890190604435825260a08a0192835260c08a01938d855260e08b01956084356132f3906148ad565b60843587526101008c01976133089089614c95565b6101208c01818152426101408e019081526101608e019c8d526101808e018390526101a08e019b909b52988152600c602052604090208b5181559b5160018d0180546001600160a01b039283166001600160a01b031991821617909155915160028e018054918316918416919091179055915160038d0180549190931691161790555160048a015551600589015551600688015551906133a7826148ad565b6133b0826148ad565b600787015490516002811015613a565792600b95926101a095928f61ff006134479b9a9760ff925060081b1692169061ffff191617176007880155516133f5816148ad565b6133fe816148ad565b62ff000060078801549160101b169062ff00001916176007870155516008860155516009850155610180810151600a8501550151151591019060ff801983541691151516179055565b338652600d60205261345c8560408820614ca1565b838652600e6020526134718560408820614ca1565b61348860443530336001600160a01b038516615742565b33865260106020526040862060018060a01b03821687526020526134b3604087206044359054614c08565b903387526010602052604087209060018060a01b0316875260205260408620556134f4604051926134e56084356148ad565b608435845260208401906148cd565b60443560408301526060820152827f9d851f9f93606566bbbebb9dec7679ce7184d01481de9e66d615dc270ed9bb2260803393a46135336084356148ad565b6084351561354b575b60209060018055604051908152f35b808252600c602052604082206002810180546003830180549093929161357d916001600160a01b039081169116614cc7565b8552600e60205260408520946040518087602082995493848152019084526020842092845b818110613a3d5750506135b792500387614942565b60078301815b87518110156138f3576135d08189614be5565b51808452600c60205260408420600781015460ff8160101c166135f2816148ad565b15801590613a1f575b8015613a03575b80156139e7575b80156139de575b6139d357859060ff865460081c1660028110156139bf57801580613992575b15613944575050506006870154600682015411155b613655575b50506001905b016135bd565b88856004890193845493613683613672600a8d0196875490614bd8565b91600a600482015491015490614bd8565b8082101561393d57505b8061369c575b50505050613649565b838352600c60205260408320828452600c60205260408420906008810154600883015411600014613932576006810154915b670de0b6b3a76400006136e18486614ba5565b04906136fd6127106136f560065485614ba5565b048093614bd8565b90600a840161370d878254614c08565b8155600a82019061371f888354614c08565b82555460048601541461391a575b54600482015414613902575b6001840180546001600160a01b03908116808b52601060209081526040808d2060028a0154909416808e52939091528b205492969290919061377c908a90614bd8565b918b52601060208181526040808e206001600160a01b039485168f528252808e20949094556001860180548416808f52928252848e206002880154909416808f5293909152928c2054929b90929091906137d7908b90614bd8565b9282526010602090815260408084206001600160a01b03938416855290915290912091909155600391909101805486549194613818939092811691166155f4565b6003015487546138369187916001600160a01b0390811691166155f4565b546001600160a01b0316808d52601260205260408d2054909161385891614c08565b908c52601260209081526040808e20929092559154955481518581529283018490526001600160a01b0396871697961695869288927f88af4c696532bdbd05ad505c8c3f6c6dd786ab24777c70949ebb2a6ec2a3020d91a4604051918252602082015260407f88af4c696532bdbd05ad505c8c3f6c6dd786ab24777c70949ebb2a6ec2a3020d91a4549054146138f357388088858280613693565b5050505050506020915061353c565b60078101805462ff0000191662010000179055613739565b60078501805462ff000019166201000017905561372d565b6006820154916136ce565b905061368d565b6001149081613966575b50156136445750600687015460068201541015613644565b60ff915060081c16600281101561397e57153861394e565b634e487b7160e01b87526021600452602487fd5b5060ff8260081c1660028110156139ab5760011461362f565b634e487b7160e01b89526021600452602489fd5b634e487b7160e01b88526021600452602488fd5b50505060019061364f565b50898314613610565b50600382015487546001600160a01b0390811691161415613609565b50600282015489546001600160a01b0390811691161415613602565b50600182810154908901546001600160a01b039081169116146135fb565b845483526001948501948b9450602090930192016135a2565b634e487b7160e01b8e52602160045260248efd5b8895613295565b60405162461bcd60e51b8152602060048201526013602482015272496e76616c6964206578706972792074696d6560681b6044820152606490fd5b955062093a804201804211613ac15795613257565b634e487b7160e01b88526011600452602488fd5b60405162461bcd60e51b815260206004820152601760248201527f54726164696e672070616972206e6f74206163746976650000000000000000006044820152606490fd5b60405162461bcd60e51b815260206004820152601760248201527f43616e6e6f742074726164652073616d6520746f6b656e0000000000000000006044820152606490fd5b50811515613212565b50346103985780600319360112610398576002546040516001600160a01b039091168152602090f35b503461039857602036600319011261039857613bab615636565b6004358152600a60205260408120600101805460ff60a01b1916600160a01b17905580f35b503461039857602036600319011261039857600435819082818452600a6020526040842092600684015493600581015460076004830154920154946201517f19420190428211613cdf57885b60188110613c4c5750505060c09650604051958652602086015260408501526060840152608083015260a0820152f35b610e108102818104610e10148215171561073a57613c6a9084614c08565b828b52601160205260408b20908b5260205260408a208054613c90575b50600101613c1c565b86158015613cd2575b613cc6575b87158015613cb9575b15613c87576003015496506001613c87565b5087600382015410613ca7565b60028101549650613c9e565b5086600282015411613c99565b634e487b7160e01b89526011600452602489fd5b50346103985780600319360112610398576020601754604051908152f35b503461039857602036600319011261039857613d2b615636565b6004358152600a60205260408120600101805460ff60a01b1916905580f35b503461039857602036600319011261039857600435906016548210156103985760206108f8836147ba565b50346103985760a036600319011261039857613d8f61472e565b613d97614744565b90608435613da3615636565b6001600160a01b0382168085526009602052604085205490929060ff1680614047575b1561400b576001600160a01b03841693838514613fc657613de691614cc7565b90818552600a60205260ff600160408720015460a01c16613f8b5760405161014081018181106001600160401b03821117613f7757604052838152600882828589602083018a81526040840190600182526060850160443581526080860191606435835260a0870193858552604060c089019680885260e08a0198818a526101206101008c019b838d52019b8c528152600a602052209a60018060a01b039060018060a01b03905116166001600160601b0360a01b8c5416178b5560018b019160018060a01b039060018060a01b03905116166001600160601b0360a01b83541617825551151581549060ff60a01b9060a01b169060ff60a01b191617905551600289015551600388015551600487015551600586015551600685015551600784015551910155601654600160401b811015610b97577fdbb9cbcb53b05fba8122a09e53ad32ffefd1c0a7329a9393d615c2eb3564192d9183613f6b613f54846001602096016016556147ba565b819391549060031b91821b91600019901b19161790565b9055604051908152a480f35b634e487b7160e01b87526041600452602487fd5b60405162461bcd60e51b81526020600482015260136024820152725061697220616c72656164792065786973747360681b6044820152606490fd5b60405162461bcd60e51b815260206004820152601d60248201527f43616e6e6f74207061697220746f6b656e207769746820697473656c660000006044820152606490fd5b60405162461bcd60e51b8152602060048201526014602482015273151bdad95b9cc81b9bdd081cdd5c1c1bdc9d195960621b6044820152606490fd5b506001600160a01b03841685526009602052604085205460ff16613dc6565b50346103985760403660031901126103985760409061408361472e565b61408b614744565b6001600160a01b039182168352600b60209081528484209290911683525220604051906140b7826148da565b80546001600160a01b0390811680845260018301546020808601829052600285015460ff81161515604080890182905260089290921c90951660608089018290526003909701546080988901819052825195865292850193909352830193909352928101929092529181019190915260a090f35b50346103985760203660031901126103985760209061414861472e565b9061415282615001565b90809360018060a01b031692838152601486528260408083205492868152601489528482822055868152601389522055818103614194575b8582604051908152f35b6141d67f40a2e1011bc4b63fe019abc98ce43b9ae4a22f2072b84f3d14941dc1675979c293604051938493846040919493926060820195825260208201520152565b0390a23880828161418a565b50346103985780600319360112610398576004546040516001600160a01b039091168152602090f35b5034610398576020366003190112610398576020906040906001600160a01b0361423361472e565b168152601283522054604051908152f35b503461039857614253366147a4565b908252600e602052604082206040518082602082945493848152019086526020862092865b8181106144fc57505061428d92500382614942565b82908390845b8151811015614329576142a68183614be5565b518652600c6020526040862060078101549060ff8260101c166142c8816148ad565b15908161431b575b506142df575b50600101614293565b90939060081c60ff16600281101561397e5761430857614300600191614bf9565b935b906142d6565b9291614315600191614bf9565b92614302565b6009915001544210386142d0565b50929091818111156144f6575080915b818111156144ef57505b61434c826149d7565b91614356816149d7565b92614360836149d7565b9261436a816149d7565b87948890895b89518110806144dd575b1561448f57614389818b614be5565b518b52600c60205260408b2060078101549060ff8260101c166143ab816148ad565b1580614482575b6143c7575b50506143c290614bf9565b614370565b60ff6143df6004839c959c0154600a84015490614bd8565b9260081c166002811015613a56578d811580614479575b156144285750509161441f9160066143c2940154614414838b614be5565b526130e4828d614be5565b975b90386143b7565b5092999260011480614470575b614445575b50506143c290614421565b936144689160066143c29496015461445d8387614be5565b526130e48288614be5565b92903861443a565b50868510614435565b508a85106143f6565b50600981015442106143b2565b6144b386610cef866144cf866144c18f604051978897608089526080890190614770565b908782036020890152614770565b908582036040870152614770565b908382036060850152614770565b508688108061437a575084831061437a565b9050614343565b91614339565b8454835260019485019486945060209093019201614278565b50346103985780600319360112610398576003546040516001600160a01b039091168152602090f35b50346103985761454d366147a4565b6145589291926155d2565b828252600f602052604082209261457560ff600786015416614b67565b338352600684016020819052604084205490949083116146a65760028101948554946145a18686614ba5565b600484019086825491826145b491614bb8565b9960038701908b825491856145c98487614ba5565b906145d391614bb8565b9c8d926145df91614bd8565b90556145ea91614bd8565b90556145f591614bd8565b90553381526020829052604081205461460f908690614bd8565b33808352602093909352604090912055426008830155815461463b9187916001600160a01b03166155f4565b6001015461465590849033906001600160a01b03166155f4565b60408051858152602081018590529081019290925233917f1644e236c5520c62ce0dee793b42f87f940781d55b02c890fbbcdfff1ee5e25190606090a3600180556040519182526020820152604090f35b60405162461bcd60e51b8152602060048201526013602482015272496e73756666696369656e742073686172657360681b6044820152606490fd5b503461039857602036600319011261039857614720610cef61470961470461472e565b614a09565b604092919251938493604085526040850190614770565b908382036020850152614770565b600435906001600160a01b038216820361080e57565b602435906001600160a01b038216820361080e57565b608435906001600160a01b038216820361080e57565b906020808351928381520192019060005b81811061478e5750505090565b8251845260209384019390920191600101614781565b604090600319011261080e576004359060243590565b6016548110156147d557601660005260206000200190600090565b634e487b7160e01b600052603260045260246000fd5b6015548110156147d557601560005260206000200190600090565b80548210156147d55760005260206000200190600090565b906020808351928381520192019060005b81811061483c5750505090565b82516001600160a01b031684526020938401939092019160010161482f565b90602060031983011261080e576004356001600160401b03811161080e578260238201121561080e578060040135926001600160401b03841161080e5760248460051b8301011161080e576024019190565b600411156148b757565b634e487b7160e01b600052602160045260246000fd5b9060028210156148b75752565b60a081019081106001600160401b038211176148f557604052565b634e487b7160e01b600052604160045260246000fd5b6101c081019081106001600160401b038211176148f557604052565b60e081019081106001600160401b038211176148f557604052565b90601f801991011681019081106001600160401b038211176148f557604052565b6001600160401b0381116148f55760051b60200190565b9080601f8301121561080e57815161499181614963565b9261499f6040519485614942565b81845260208085019260051b82010192831161080e57602001905b8282106149c75750505090565b81518152602091820191016149ba565b906149e182614963565b6149ee6040519182614942565b82815280926149ff601f1991614963565b0190602036910137565b6001600160a01b039081166000908152600b6020908152604080832060055490941683529290528190209051614a3e816148da565b81546001600160a01b03908116825260018301546020830152600283015460ff81161515604084015260081c166060820181905260039092015460809091015280614ab95750602090604051614a948382614942565b60008152600036813760405192614aab8185614942565b600084525060003681379190565b90600060018060a01b0360035416926024604051809581936302f55b6160e01b835260048301525afa918215614b5b576000908193614af757509190565b919092503d8084843e614b0a8184614942565b8201604083820312611a7d5782516001600160401b0381116108c25781614b3291850161497a565b926020810151906001600160401b038211614b5757614b54939495500161497a565b90565b8580fd5b6040513d6000823e3d90fd5b15614b6e57565b60405162461bcd60e51b815260206004820152600f60248201526e506f6f6c206e6f742061637469766560881b6044820152606490fd5b8181029291811591840414171561171e57565b8115614bc2570490565b634e487b7160e01b600052601260045260246000fd5b9190820391821161171e57565b80518210156147d55760209160051b010190565b600019811461171e5760010190565b9190820180921161171e57565b15614c1c57565b60405162461bcd60e51b8152602060048201526013602482015272151bdad95b881b9bdd081cdd5c1c1bdc9d1959606a1b6044820152606490fd5b15614c5e57565b60405162461bcd60e51b815260206004820152600f60248201526e496e76616c696420616d6f756e747360881b6044820152606490fd5b60028210156148b75752565b805490600160401b8210156148f55781613f54916001614cc394018155614806565b9055565b906001600160a01b038082169083161015614d25576040516bffffffffffffffffffffffff19606093841b8116602083019081529290931b909216603483015290614d1f81604881015b03601f198101835282614942565b51902090565b6040516bffffffffffffffffffffffff19606092831b8116602083019081529390921b9091166034820152614d1f8160488101614d11565b15614d6457565b60405162461bcd60e51b815260206004820152601460248201527313dc99195c88191bd95cc81b9bdd08195e1a5cdd60621b6044820152606490fd5b15614da757565b60405162461bcd60e51b815260206004820152601060248201526f4f72646572206e6f742061637469766560801b6044820152606490fd5b15614de657565b60405162461bcd60e51b815260206004820152600d60248201526c13dc99195c88195e1c1a5c9959609a1b6044820152606490fd5b6004546001600160a01b031680614e425750604051614e3b602082614942565b6000815290565b600060049160405192838092631e2e3a6b60e01b82525afa908115614b5b57600091614e6c575090565b903d8082843e614e7c8184614942565b820191602081840312613141578051906001600160401b038211611c38570182601f82011215613141578051614eb181614963565b93614ebf6040519586614942565b81855260208086019260051b840101928184116108c25760208101925b848410614eec5750505050505090565b83516001600160401b038111614fed5782016040818503601f190112614fed5760405190604082018281106001600160401b03821117614fd957604052602081015182526040810151906001600160401b038211614fd55790602091010184601f82011215614fd1578051614f6081614963565b91614f6e6040519384614942565b81835260208084019260051b82010190878211614fcd57602001915b818310614fa95750505091816020938480940152815201930192614edc565b82516001600160a01b0381168103614fc957815260209283019201614f8a565b8b80fd5b8a80fd5b8780fd5b8880fd5b634e487b7160e01b89526041600452602489fd5b8680fd5b91908110156147d55760051b0190565b6005546001600160a01b03918216911681811461525a5781600052600b60205260408060002060009060018060a01b03841682526020522090604051615046816148da565b82546001600160a01b039081168252600184015460208301908152600285015460ff811615156040850190815260089190911c909216606084018190526003909501546080840152938061517d575b50516150d7575b60405162461bcd60e51b81526020600482015260136024820152725072696365206e6f7420617661696c61626c6560681b6044820152606490fd5b6002549051925160405163a20f230560e01b81526001600160a01b039485166004820152602481019190915260448101949094526064840191909152670de0b6b3a76400006084840152602091839160a4918391165afa60009181615149575b506151445780808061509c565b904290565b9091506020813d602011615175575b8161516560209383614942565b8101031261080e57519038615137565b3d9150615158565b60035460408051630ef90e1b60e41b8152600481019390935290829060249082906001600160a01b03165afa908160009160009361521f575b506151c2575b50615095565b94929096959391610e106151d68942614bd8565b116151e45750505050509190565b91939596869193955060207f6e4bb5e67f4df360e743ef06c9bc609465d4cfa533dbd77b7a58b7c1d17585e691604051908152a238806151bc565b915091506040813d604011615252575b8161523c60409383614942565b8101031261080e576020815191015191386151b6565b3d915061522f565b5050670de0b6b3a7640000904290565b9190916152778382614cc7565b600052600f602052604060002060ff60078201541680615456575b61543857506001600160a01b038181166000818152600b60209081526040808320948816835293905282902091516152c9816148da565b82546001600160a01b03908116825260018401546020830152600284015460ff8116158015604085015260089190911c90911660608301526003909301546080820152916153c3575b5060408101516153255750505050600090565b600254815160209283015160405163a20f230560e01b81526001600160a01b039283166004820152602481019190915293811660448501529485166064840152608483019390935290929091839160a4918391165afa6000918161538f575b50614b545750600090565b9091506020813d6020116153bb575b816153ab60209383614942565b8101031261080e57519038615384565b3d915061539e565b6000908152600b602090815260408083206005546001600160a01b0316845290915290819020905191506003906153f9836148da565b80546001600160a01b03908116845260018201546020850152600282015460ff81161515604086015260081c1660608401520154608082015238615312565b8054614b5494506001600160a01b0392831692169190911491615cde565b50615460816158d8565b615292565b6001600160a01b038116600081815260136020526040902054929190831515806154b2575b61549e575061549a919250615001565b9091565b905060005260146020526040600020549190565b50610e106154c08542614bd8565b111561548a565b5190811515820361080e57565b6001600160a01b039081166000908152600b6020908152604080832060055490941683529290528190209051615509816148da565b81546001600160a01b03908116825260018301546020830152600283015460ff81161515604084015260081c1660608201819052600390920154608090910152806155575750600190600090565b90604060018060a01b036003541692602482518095819363ffe736bf60e01b835260048301525afa918215614b5b5760009060009361559557509190565b9250506040823d6040116155ca575b816155b160409383614942565b8101031261080e5760206155c4836154c7565b92015190565b3d91506155a4565b6002600154146155e3576002600155565b633ee5aeb560e01b60005260046000fd5b60405163a9059cbb60e01b60208201526001600160a01b0390921660248301526044808301939093529181526156349161562f606483614942565b615ef0565b565b6000546001600160a01b0316330361564a57565b63118cdaa760e01b6000523360045260246000fd5b6005549293926001600160a01b0390811690831681036156a75750505090670de0b6b3a7640000820291808304670de0b6b3a7640000149015171561171e57614b5491614bb8565b6001600160a01b038216036156e2575050670de0b6b3a7640000820291808304670de0b6b3a7640000149015171561171e57614b5491614bb8565b92670de0b6b3a764000061570f61571693615708615701849798615465565b5091615465565b5093614ba5565b0493614ba5565b0490670de0b6b3a7640000820291808304670de0b6b3a7640000149015171561171e57614b5491614bb8565b6040516323b872dd60e01b60208201526001600160a01b0392831660248201529290911660448301526064808301939093529181526156349161562f608483614942565b6000818152600c602052604090206001810180546001600160a01b039485169416919084831480156158c4575b1561588e5760078201805462ff00001916620200001790556004820154600a8301546157de91614bd8565b9182615810575b505050507fc0362da6f2ff36b382b34aec0814f6b3cdf89f5ef282a1d1f114d0c0b036d596600080a3565b836158859460005260106020526002604060002092019160018060a01b038354169060018060a01b03821660005260205261585085604060002054614bd8565b60009283526010602090815260408085206001600160a01b0394851686529091529092209190915590549154811691166155f4565b388080806157e5565b60405162461bcd60e51b815260206004820152600e60248201526d139bdd08185d5d1a1bdc9a5e995960921b6044820152606490fd5b506000546001600160a01b031685146157b3565b61593290670de0b6b3a764000061592b6158fa60018060a01b03845416615465565b5060038361592261591660018060a01b03600189015416615465565b50936002880154614ba5565b04940154614ba5565b0490614c08565b600854111590565b6001600160a01b0391821681526020810192909252918216604082015291166060820152608081019190915260a081019190915260c00190565b91909160018060a01b0381169081600052600b60205260408060002060009060018060a01b0387168252602052206040516159ae816148da565b81546001600160a01b03908116825260018301546020830152600283015460ff8116158015604085015260089190911c9091166060830152600390920154608082015290615c1e575b615a0384303386615742565b6005546001600160a01b038681169591168581148015615c11575b15615ab9575060209350600060018060a01b036002541692615a66828760018060a01b03845116930151946040519a8b9889978896630ddbbe8560e41b88526004880161593a565b03925af18015614b5b57600090615a85575b614b5492509283916155f4565b506020823d602011615ab1575b81615a9f60209383614942565b8101031261080e57614b549151615a78565b3d9150615a92565b9160209350600060c49260018060a01b0360025416908660018060a01b03855116940151956040519889978896630ddbbe8560e41b8852600488015260248701526044860152606485015260848401528160a48401525af1908115614b5b57600091615bdf575b5060018060a01b036005541680600052600b602052604080600020600090858252602052209160405190615b53826148da565b83546001600160a01b039081168352600185015460208401908152600286015460ff8116158015604087015260089190911c90921660608501526003909501546080840152612b8b5760025491519351604051630ddbbe8560e41b81529660209588956001600160a01b039586169587956000958795615a66958895939491939291166004880161593a565b90506020813d602011615c09575b81615bfa60209383614942565b8101031261080e575138615b20565b3d9150615bed565b5060208301511515615a1e565b506000828152600b602090815260408083206005546001600160a01b03168452909152908190209051615c50816148da565b81546001600160a01b03908116825260018301546020830152600283015460ff811615156040840181905260089190911c90911660608301526003909201546080820152906159f75760405162461bcd60e51b815260206004820152601e60248201527f4e6f2065786368616e67652070726f766964657220617661696c61626c6500006044820152606490fd5b91908115615d48576002810154915b15615d3f57600301545b6103e58302928084046103e5149015171561171e57615d169083614ba5565b906103e88102908082046103e8149015171561171e57614b5492615d3991614c08565b90614bb8565b60020154615cf7565b600381015491615ced565b8054615634969491926001600160a01b03908116911603615da757615d7d60028301918254614c08565b905560038101615d8e858254614bd8565b90555b42600891909101556001600160a01b03166155f4565b615db660038301918254614c08565b905560028101615dc7858254614bd8565b9055615d91565b6001811115614b5457806001600160801b821015615edf575b600482600160401b615e91941015615ed2575b640100000000811015615ec5575b62010000811015615eb8575b610100811015615eac575b6010811015615ea0575b1015615e98575b60030260011c615e408184614bb8565b0160011c615e4e8184614bb8565b0160011c615e5c8184614bb8565b0160011c615e6a8184614bb8565b0160011c615e788184614bb8565b0160011c615e868184614bb8565b0160011c8092614bb8565b8111900390565b60011b615e30565b811c9160021b91615e29565b60081c91811b91615e1f565b60101c9160081b91615e14565b60201c9160101b91615e08565b60401c9160201b91615dfa565b5050608081901c600160401b615de7565b906000602091828151910182855af115614b5b576000513d615f4257506001600160a01b0381163b155b615f215750565b635274afe760e01b60009081526001600160a01b0391909116600452602490fd5b60011415615f1a565b909161012c42049161012c9283810293818504149015171561171e576000526011602052604060002082600052602052604060002091825415600014615fb457906001938392600694558085840155806002840155806003840155600483015560058201550155565b5060069260028301805480831160001461600e575081905b5560038301805480831015616008575081905b556004830155615ff460058301918254614c08565b9055018054906001820180921161171e5755565b90615fdf565b90615fcc56fea264697066735822122060fc37ff211f406f5b3e3ad68e6b6d2dbd3c1cd4203eecde8f997665fc5e6c6f64736f6c634300081c0033",
  "linkReferences": {},
  "deployedLinkReferences": {}
}